:02000000016B92
:0100030032CA
:02000B002117BB
:0100130032BA
:01001B0032B2
:0200230001C614
:200028000000E2FBEAF2802C0000E0FBEAF08024E6B50202EBF62200E2B50202EBF22200BE
:20004800E0B50202EBF02230F6E0A88220F5D3EAC6F582228B822230F6E6A88220F5D980CE
:01006800CFC8
:0200C4000169D0
:0200690021561E
:2000C600C0E0C082C083C007C006C0D075D000309816AF99E521FE04F521EE2405F582E4DD
:2000E6003400F583EFF0C2981099007401B52105C20275265A7440B5210AD200752600C2A0
:2001060002752100D0D0D006D007D083D082D0E032C0E0C007C006C0D075D000E5284529F0
:200126006016AE28AF29EE24FFF528EF34FFF529E52845297002D201E526600BE52614F5DD
:2001460026E5267002D202D0D0D006D007D0E032A2AF9204C2AF75C7AA75C755439F01A29F
:200166000492AFB176D1F4D1D3C201752820752903C203200002A147C2AF20030241257543
:20018600270874C025275002411375AF218522A68523A7E5272405F582E43400F583E0F512
:2001A600AE75C7AA75C75543A40175AF00E5272405F582E43400F583E0F508B5AE02800208
:2001C60080FE7443B59F0280FEAC08E4FDFEFFEC252EF52EED352FF52FEE3530F530EF350B
:2001E60031F531AE22AF2374012EF522E43FF52385240985250AE509B5220BE50AB5230608
:20020600C203D2018007E52704F5272188F140AF2E90004DEFF0AF2F90004EEFF0F1B0904E
:200226000005E0FFBFA00261E7BFA1026124BFA20241F0BFA3028054BFA4028016BFA60216
:20024600801EBFAB02A169BFAE028007BFB102801BA140F140F1B0E4F528F529C201A1400B
:20026600F14090004D7428F0F1B0A140B1F8F14090004DE535F090004EE534F090004FE5F0
:2002860033F0900050E532F0F1B0A140A2AF9204C2AF75C7AA75C75543A501A20492AF75B8
:2002A600AEFF75AF22E4F522F523C3E5229460E5239400502FE52275F080A4F5A6AE22E579
:2002C600235401A2E0CE13CE13CEF5A775C7AA75C75543A401AE22AF2374012EF522E43F14
:2002E600F52380C6F140F1B0A140D168F14090004DE536F090004EE537F090004FE538F0BF
:2003060090005074FFF0900051E539F090005274FFF0900053F0900054F0F1B0A1409000A7
:200326000DE0F53A90000EE0F53B90000FE0F53C900011E0F53DA2AF9204C2AF75C7AA75D7
:20034600C75543A504A20492AF75AFE275A60075A70075AEFF75C7AA75C75543A40175AFC6
:20036600E1853AAE75C7AA75C75543A401853BAE75A60175C7AA75C75543A40175A602853F
:200386003CAE75C7AA75C75543A40175A604853DAE75C7AA75C75543A401A2AF9204C2AFC8
:2003A60075C7AA75C75553A5FBA20492AFD168F14090004DE536F090004EE537F090004FCB
:2003C600E538F090005074FFF0900051E539F090005274FFF0900053F0900054F0F1B0A1AA
:2003E60040A2AF9204C2AF75C7AA75C75543A501A20492AF75AEFF75AF2290000DE0FF90A4
:20040600000EE0FDE4FEFCEF4206EC4205900001EEF0EDA3F0E4F524F525900011E0F52403
:20042600752500900012E0F508AF087C00AA24AB25EA4204EB42078C248F25900003E52468
:200446002EF0E5253DA3F07E008E228D23900003E0FEA3E0FFC3E5229EE5239F50208522A7
:20046600A68523A775C7AA75C75543A401AE22AF2374802EFEE43FFF8E228F2380CFE4F5B4
:200486002EF52FF530F531900001E0F522A3E0F523D20375271074C025275002A12E75AF50
:2004A600218522A68523A7E5272405F582E43400F583E0F5AE75C7AA75C75543A40175AF37
:2004C6000075C7AA75C75543A401E5272405F582E43400F583E0F508B5AE02800280FE74C5
:2004E60043B59F0280FEAC08E4FDFEFFEC252EF52EED352FF52FEE3530F530EF3531F53183
:20050600AE22AF2374012EF522E43FF52385240985250AE509B52209E50AB52304C20380FA
:2005260007E52704F527819CF140AF2E90004DEFF0AF2F90004EEFF0F1B0C200752100D235
:20054600AF30010300801C200202217974C025214004E5217008E52124BF400221797521C1
:10056600002179B1C175C7AA75C755759F8080FEF0
:2005760075910075A63075A70075AF0475C7AA75C75543A401AFAEE5A604F5A675C7AA758F
:20059600C75543A401AEAEEF2FFF530601EE2F24F2FE74015EFFEEC313FE75C7AA75C75532
:2005B6008E8475C7AA75C7558F852275A70075A63075AF0475C7AA75C75543A40185AE3E07
:2005D60075A63175C7AA75C75543A40185AE3F75C7AA75C755853E8475C7AA75C755853FEF
:2005F600852275AF0C75A70075A600A2AF9204C2AF75C7AA75C75543A401A20492AF85AE06
:200616003575A601A2AF9204C2AF75C7AA75C75543A401A20492AF85AE347467B534327503
:20063600A602A2AF9204C2AF75C7AA75C75543A401A20492AF85AE3375A603A2AF9204C231
:20065600AF75C7AA75C75543A401A20492AF85AE322275AFC075A60075A700A2AF9204C244
:20067600AF75C7AA75C75543A401A20492AF85AE3675A601A2AF9204C2AF75C7AA75C7551B
:2006960043A401A20492AF85AE3775A602A2AF9204C2AF75C7AA75C75543A401A20492AF50
:2006B60085AE3875A604A2AF9204C2AF75C7AA75C75543A401A20492AF85AE3922758A006F
:2006D600758C00D28CA2AF9204C2AF75C7AA75C755759100A20492AF43B710D2A92253B13E
:2006F600BF53B2BF53B17F53B27F75985043878053C4F8A2AF9204C2AF75C7AA75C7557560
:200716009100A20492AF43C42075C6FF75C5F7A2AF9204C2AF75C7AA75C755759100A2043E
:2007360092AF43C408D2ACD2AF22E4F52AF52BF52CF52DF52774C02527402CE5272405F59A
:2007560082E43400F583E0FFE4FEFDFCEF252AF52AEE352BF52BED352CF52CEC352DF52D0D
:20077600E52704F52780CEAF2A900045EFF0AF2B900046EFF0900009E0FF0F900049EFF08E
:2007960090000AE090004AF0900049E0700B90004AE0FF0F90004AEFF02275910075270086
:2007B60074C02527402DC299E5272445F582E43400F583E0F5993099FDA2AF9204C2AF755E
:1407D600C7AA75C75543AA40A20492AFE52704F52780CD225E
:06009A00E478FFF6D8FD3A
:200078007900E94400601B7A009007EE788575A000E493F2A308B8000205A0D9F4DAF275B5
:02009800A0FFC7
:2000A0007800E84400600A790175A000E4F309D8FC7884E84400600C7901900001E4F0A3D9
:0400C000D8FCD9FA95
:0D006B0075813F1207EAE58260030200691B
:0407EA0075820022F2
:00000001FF
